{
  "abi": [
    {
      "inputs": [],
      "stateMutability": "nonpayable",
      "type": "constructor"
    },
    {
      "anonymous": false,
      "inputs": [
        {
          "indexed": true,
          "internalType": "address",
          "name": "owner",
          "type": "address"
        },
        {
          "indexed": true,
          "internalType": "address",
          "name": "approved",
          "type": "address"
        },
        {
          "indexed": true,
          "internalType": "uint256",
          "name": "tokenId",
          "type": "uint256"
        }
      ],
      "name": "Approval",
      "type": "event"
    },
    {
      "anonymous": false,
      "inputs": [
        {
          "indexed": true,
          "internalType": "address",
          "name": "owner",
          "type": "address"
        },
        {
          "indexed": true,
          "internalType": "address",
          "name": "operator",
          "type": "address"
        },
        {
          "indexed": false,
          "internalType": "bool",
          "name": "approved",
          "type": "bool"
        }
      ],
      "name": "ApprovalForAll",
      "type": "event"
    },
    {
      "anonymous": false,
      "inputs": [
        {
          "indexed": true,
          "internalType": "address",
          "name": "from",
          "type": "address"
        },
        {
          "indexed": true,
          "internalType": "address",
          "name": "to",
          "type": "address"
        },
        {
          "indexed": true,
          "internalType": "uint256",
          "name": "tokenId",
          "type": "uint256"
        }
      ],
      "name": "Transfer",
      "type": "event"
    },
    {
      "inputs": [
        {
          "internalType": "address",
          "name": "to",
          "type": "address"
        },
        {
          "internalType": "uint256",
          "name": "tokenId",
          "type": "uint256"
        }
      ],
      "name": "approve",
      "outputs": [],
      "stateMutability": "nonpayable",
      "type": "function"
    },
    {
      "inputs": [
        {
          "internalType": "address",
          "name": "owner",
          "type": "address"
        }
      ],
      "name": "balanceOf",
      "outputs": [
        {
          "internalType": "uint256",
          "name": "",
          "type": "uint256"
        }
      ],
      "stateMutability": "view",
      "type": "function"
    },
    {
      "inputs": [],
      "name": "fetchNfts",
      "outputs": [
        {
          "components": [
            {
              "internalType": "string",
              "name": "name",
              "type": "string"
            },
            {
              "internalType": "string",
              "name": "imageUrl",
              "type": "string"
            },
            {
              "internalType": "string",
              "name": "encryptedDescription",
              "type": "string"
            },
            {
              "internalType": "string",
              "name": "encryptedSymmetricKey",
              "type": "string"
            }
          ],
          "internalType": "struct NFT.nft[]",
          "name": "",
          "type": "tuple[]"
        }
      ],
      "stateMutability": "view",
      "type": "function"
    },
    {
      "inputs": [
        {
          "internalType": "uint256",
          "name": "tokenId",
          "type": "uint256"
        }
      ],
      "name": "getApproved",
      "outputs": [
        {
          "internalType": "address",
          "name": "",
          "type": "address"
        }
      ],
      "stateMutability": "view",
      "type": "function"
    },
    {
      "inputs": [
        {
          "internalType": "address",
          "name": "owner",
          "type": "address"
        },
        {
          "internalType": "address",
          "name": "operator",
          "type": "address"
        }
      ],
      "name": "isApprovedForAll",
      "outputs": [
        {
          "internalType": "bool",
          "name": "",
          "type": "bool"
        }
      ],
      "stateMutability": "view",
      "type": "function"
    },
    {
      "inputs": [
        {
          "internalType": "string",
          "name": "name",
          "type": "string"
        },
        {
          "internalType": "string",
          "name": "imageUrl",
          "type": "string"
        },
        {
          "internalType": "string",
          "name": "encryptedDescription",
          "type": "string"
        },
        {
          "internalType": "string",
          "name": "encryptedSymmetricKey",
          "type": "string"
        }
      ],
      "name": "mintNft",
      "outputs": [],
      "stateMutability": "nonpayable",
      "type": "function"
    },
    {
      "inputs": [],
      "name": "name",
      "outputs": [
        {
          "internalType": "string",
          "name": "",
          "type": "string"
        }
      ],
      "stateMutability": "view",
      "type": "function"
    },
    {
      "inputs": [
        {
          "internalType": "uint256",
          "name": "tokenId",
          "type": "uint256"
        }
      ],
      "name": "ownerOf",
      "outputs": [
        {
          "internalType": "address",
          "name": "",
          "type": "address"
        }
      ],
      "stateMutability": "view",
      "type": "function"
    },
    {
      "inputs": [
        {
          "internalType": "address",
          "name": "from",
          "type": "address"
        },
        {
          "internalType": "address",
          "name": "to",
          "type": "address"
        },
        {
          "internalType": "uint256",
          "name": "tokenId",
          "type": "uint256"
        }
      ],
      "name": "safeTransferFrom",
      "outputs": [],
      "stateMutability": "nonpayable",
      "type": "function"
    },
    {
      "inputs": [
        {
          "internalType": "address",
          "name": "from",
          "type": "address"
        },
        {
          "internalType": "address",
          "name": "to",
          "type": "address"
        },
        {
          "internalType": "uint256",
          "name": "tokenId",
          "type": "uint256"
        },
        {
          "internalType": "bytes",
          "name": "data",
          "type": "bytes"
        }
      ],
      "name": "safeTransferFrom",
      "outputs": [],
      "stateMutability": "nonpayable",
      "type": "function"
    },
    {
      "inputs": [
        {
          "internalType": "address",
          "name": "operator",
          "type": "address"
        },
        {
          "internalType": "bool",
          "name": "approved",
          "type": "bool"
        }
      ],
      "name": "setApprovalForAll",
      "outputs": [],
      "stateMutability": "nonpayable",
      "type": "function"
    },
    {
      "inputs": [
        {
          "internalType": "bytes4",
          "name": "interfaceId",
          "type": "bytes4"
        }
      ],
      "name": "supportsInterface",
      "outputs": [
        {
          "internalType": "bool",
          "name": "",
          "type": "bool"
        }
      ],
      "stateMutability": "view",
      "type": "function"
    },
    {
      "inputs": [],
      "name": "symbol",
      "outputs": [
        {
          "internalType": "string",
          "name": "",
          "type": "string"
        }
      ],
      "stateMutability": "view",
      "type": "function"
    },
    {
      "inputs": [
        {
          "internalType": "uint256",
          "name": "tokenId",
          "type": "uint256"
        }
      ],
      "name": "tokenURI",
      "outputs": [
        {
          "internalType": "string",
          "name": "",
          "type": "string"
        }
      ],
      "stateMutability": "view",
      "type": "function"
    },
    {
      "inputs": [
        {
          "internalType": "address",
          "name": "from",
          "type": "address"
        },
        {
          "internalType": "address",
          "name": "to",
          "type": "address"
        },
        {
          "internalType": "uint256",
          "name": "tokenId",
          "type": "uint256"
        }
      ],
      "name": "transferFrom",
      "outputs": [],
      "stateMutability": "nonpayable",
      "type": "function"
    }
  ],
  "bytecode": {
    "object": "0x60806040523480156200001157600080fd5b506040518060400160405280600c81526020016b50726976617465204461746160a01b815250604051806040016040528060038152602001620a690960eb1b815250816000908162000064919062000126565b50600162000073828262000126565b5050600160075550620001f2565b634e487b7160e01b600052604160045260246000fd5b600181811c90821680620000ac57607f821691505b602082108103620000cd57634e487b7160e01b600052602260045260246000fd5b50919050565b601f8211156200012157600081815260208120601f850160051c81016020861015620000fc5750805b601f850160051c820191505b818110156200011d5782815560010162000108565b5050505b505050565b81516001600160401b0381111562000142576200014262000081565b6200015a8162000153845462000097565b84620000d3565b602080601f831160018114620001925760008415620001795750858301515b600019600386901b1c1916600185901b1785556200011d565b600085815260208120601f198616915b82811015620001c357888601518255948401946001909101908401620001a2565b5085821015620001e25787850151600019600388901b60f8161c191681555b5050505050600190811b01905550565b611f9380620002026000396000f3fe608060405234801561001057600080fd5b50600436106100f55760003560e01c80636352211e11610097578063a22cb46511610066578063a22cb46514610201578063b88d4fde14610214578063c87b56dd14610227578063e985e9c51461023a57600080fd5b80636352211e146101b257806370a08231146101c557806382cd934e146101e657806395d89b41146101f957600080fd5b8063095ea7b3116100d3578063095ea7b31461016257806320de9a631461017757806323b872dd1461018c57806342842e0e1461019f57600080fd5b806301ffc9a7146100fa57806306fdde0314610122578063081812fc14610137575b600080fd5b61010d610108366004611643565b61024d565b60405190151581526020015b60405180910390f35b61012a61029f565b60405161011991906116b0565b61014a6101453660046116c3565b610331565b6040516001600160a01b039091168152602001610119565b6101756101703660046116f8565b610358565b005b61017f610472565b6040516101199190611722565b61017561019a3660046117de565b6107b3565b6101756101ad3660046117de565b6107e4565b61014a6101c03660046116c3565b6107ff565b6101d86101d336600461181a565b61085f565b604051908152602001610119565b6101756101f43660046118e1565b6108e5565b61012a6109b9565b61017561020f36600461198e565b6109c8565b6101756102223660046119ca565b6109d7565b61012a6102353660046116c3565b610a09565b61010d610248366004611a3a565b610b19565b60006001600160e01b031982166380ac58cd60e01b148061027e57506001600160e01b03198216635b5e139f60e01b145b8061029957506301ffc9a760e01b6001600160e01b03198316145b92915050565b6060600080546102ae90611a6d565b80601f01602080910402602001604051908101604052809291908181526020018280546102da90611a6d565b80156103275780601f106102fc57610100808354040283529160200191610327565b820191906000526020600020905b81548152906001019060200180831161030a57829003601f168201915b5050505050905090565b600061033c82610b47565b506000908152600460205260409020546001600160a01b031690565b6000610363826107ff565b9050806001600160a01b0316836001600160a01b0316036103d55760405162461bcd60e51b815260206004820152602160248201527f4552433732313a20617070726f76616c20746f2063757272656e74206f776e656044820152603960f91b60648201526084015b60405180910390fd5b336001600160a01b03821614806103f157506103f18133610b19565b6104635760405162461bcd60e51b815260206004820152603d60248201527f4552433732313a20617070726f76652063616c6c6572206973206e6f7420746f60448201527f6b656e206f776e6572206f7220617070726f76656420666f7220616c6c00000060648201526084016103cc565b61046d8383610ba9565b505050565b6060600061047f60085490565b67ffffffffffffffff81111561049757610497611835565b6040519080825280602002602001820160405280156104f357816020015b6104e06040518060800160405280606081526020016060815260200160608152602001606081525090565b8152602001906001900390816104b55790505b50905060015b600854610507906001611ab7565b8110156107ad5760008181526009602052604080822081516080810190925280548290829061053590611a6d565b80601f016020809104026020016040519081016040528092919081815260200182805461056190611a6d565b80156105ae5780601f10610583576101008083540402835291602001916105ae565b820191906000526020600020905b81548152906001019060200180831161059157829003601f168201915b505050505081526020016001820180546105c790611a6d565b80601f01602080910402602001604051908101604052809291908181526020018280546105f390611a6d565b80156106405780601f1061061557610100808354040283529160200191610640565b820191906000526020600020905b81548152906001019060200180831161062357829003601f168201915b5050505050815260200160028201805461065990611a6d565b80601f016020809104026020016040519081016040528092919081815260200182805461068590611a6d565b80156106d25780601f106106a7576101008083540402835291602001916106d2565b820191906000526020600020905b8154815290600101906020018083116106b557829003601f168201915b505050505081526020016003820180546106eb90611a6d565b80601f016020809104026020016040519081016040528092919081815260200182805461071790611a6d565b80156107645780601f1061073957610100808354040283529160200191610764565b820191906000526020600020905b81548152906001019060200180831161074757829003601f168201915b5050505050815250509050808360018461077e9190611aca565b8151811061078e5761078e611add565b60200260200101819052505080806107a590611af3565b9150506104f9565b50919050565b6107bd3382610c17565b6107d95760405162461bcd60e51b81526004016103cc90611b0c565b61046d838383610c75565b61046d838383604051806020016040528060008152506109d7565b6000818152600260205260408120546001600160a01b0316806102995760405162461bcd60e51b8152602060048201526018602482015277115490cdcc8c4e881a5b9d985b1a59081d1bdad95b88125160421b60448201526064016103cc565b60006001600160a01b0382166108c95760405162461bcd60e51b815260206004820152602960248201527f4552433732313a2061646472657373207a65726f206973206e6f7420612076616044820152683634b21037bbb732b960b91b60648201526084016103cc565b506001600160a01b031660009081526003602052604090205490565b6108ed610dd9565b6108fb600880546001019055565b600061090660085490565b90506109123382610e32565b6109278161092287878787610e4c565b610eab565b604080516080810182528681526020808201879052818301869052606082018590526000848152600990915291909120815181906109659082611ba7565b506020820151600182019061097a9082611ba7565b506040820151600282019061098f9082611ba7565b50606082015160038201906109a49082611ba7565b50905050506109b36001600755565b50505050565b6060600180546102ae90611a6d565b6109d3338383610f3e565b5050565b6109e13383610c17565b6109fd5760405162461bcd60e51b81526004016103cc90611b0c565b6109b38484848461100c565b6060610a1482610b47565b60008281526006602052604081208054610a2d90611a6d565b80601f0160208091040260200160405190810160405280929190818152602001828054610a5990611a6d565b8015610aa65780601f10610a7b57610100808354040283529160200191610aa6565b820191906000526020600020905b815481529060010190602001808311610a8957829003601f168201915b505050505090506000610ac460408051602081019091526000815290565b90508051600003610ad6575092915050565b815115610b08578082604051602001610af0929190611c83565b60405160208183030381529060405292505050919050565b610b118461103f565b949350505050565b6001600160a01b03918216600090815260056020908152604080832093909416825291909152205460ff1690565b6000818152600260205260409020546001600160a01b0316610ba65760405162461bcd60e51b8152602060048201526018602482015277115490cdcc8c4e881a5b9d985b1a59081d1bdad95b88125160421b60448201526064016103cc565b50565b600081815260046020526040902080546001600160a01b0319166001600160a01b0384169081179091558190610bde826107ff565b6001600160a01b03167f8c5be1e5ebec7d5bd14f71427d1e84f3dd0314c0f7b2291e5b200ac8c7c3b92560405160405180910390a45050565b600080610c23836107ff565b9050806001600160a01b0316846001600160a01b03161480610c4a5750610c4a8185610b19565b80610b115750836001600160a01b0316610c6384610331565b6001600160a01b031614949350505050565b826001600160a01b0316610c88826107ff565b6001600160a01b031614610cae5760405162461bcd60e51b81526004016103cc90611cb2565b6001600160a01b038216610d105760405162461bcd60e51b8152602060048201526024808201527f4552433732313a207472616e7366657220746f20746865207a65726f206164646044820152637265737360e01b60648201526084016103cc565b826001600160a01b0316610d23826107ff565b6001600160a01b031614610d495760405162461bcd60e51b81526004016103cc90611cb2565b600081815260046020908152604080832080546001600160a01b03199081169091556001600160a01b0387811680865260038552838620805460001901905590871680865283862080546001019055868652600290945282852080549092168417909155905184937fddf252ad1be2c89b69c2b068fc378daa952ba7f163c4a11628f55a4df523b3ef91a4505050565b600260075403610e2b5760405162461bcd60e51b815260206004820152601f60248201527f5265656e7472616e637947756172643a207265656e7472616e742063616c6c0060448201526064016103cc565b6002600755565b6109d38282604051806020016040528060008152506110b3565b6060600085858585604051602001610e679493929190611cf7565b6040516020818303038152906040529050610e81816110e6565b604051602001610e919190611df3565b604051602081830303815290604052915050949350505050565b6000828152600260205260409020546001600160a01b0316610f265760405162461bcd60e51b815260206004820152602e60248201527f45524337323155524953746f726167653a2055524920736574206f66206e6f6e60448201526d32bc34b9ba32b73a103a37b5b2b760911b60648201526084016103cc565b600082815260066020526040902061046d8282611ba7565b816001600160a01b0316836001600160a01b031603610f9f5760405162461bcd60e51b815260206004820152601960248201527f4552433732313a20617070726f766520746f2063616c6c65720000000000000060448201526064016103cc565b6001600160a01b03838116600081815260056020908152604080832094871680845294825291829020805460ff191686151590811790915591519182527f17307eab39ab6107e8899845ad3d59bd9653f200f220920489ca2b5937696c31910160405180910390a3505050565b611017848484610c75565b61102384848484611239565b6109b35760405162461bcd60e51b81526004016103cc90611e38565b606061104a82610b47565b600061106160408051602081019091526000815290565b9050600081511161108157604051806020016040528060008152506110ac565b8061108b84611337565b60405160200161109c929190611c83565b6040516020818303038152906040525b9392505050565b6110bd83836113ca565b6110ca6000848484611239565b61046d5760405162461bcd60e51b81526004016103cc90611e38565b6060815160000361110557505060408051602081019091526000815290565b6000604051806060016040528060408152602001611f1e60409139905060006003845160026111349190611ab7565b61113e9190611e8a565b611149906004611eac565b67ffffffffffffffff81111561116157611161611835565b6040519080825280601f01601f19166020018201604052801561118b576020820181803683370190505b509050600182016020820185865187015b808210156111f7576003820191508151603f8160121c168501518453600184019350603f81600c1c168501518453600184019350603f8160061c168501518453600184019350603f811685015184535060018301925061119c565b505060038651066001811461121357600281146112265761122e565b603d6001830353603d600283035361122e565b603d60018303535b509195945050505050565b60006001600160a01b0384163b1561132f57604051630a85bd0160e11b81526001600160a01b0385169063150b7a029061127d903390899088908890600401611ec3565b6020604051808303816000875af19250505080156112b8575060408051601f3d908101601f191682019092526112b591810190611f00565b60015b611315573d8080156112e6576040519150601f19603f3d011682016040523d82523d6000602084013e6112eb565b606091505b50805160000361130d5760405162461bcd60e51b81526004016103cc90611e38565b805181602001fd5b6001600160e01b031916630a85bd0160e11b149050610b11565b506001610b11565b6060600061134483611555565b600101905060008167ffffffffffffffff81111561136457611364611835565b6040519080825280601f01601f19166020018201604052801561138e576020820181803683370190505b5090508181016020015b600019016f181899199a1a9b1b9c1cb0b131b232b360811b600a86061a8153600a850494508461139857509392505050565b6001600160a01b0382166114205760405162461bcd60e51b815260206004820181905260248201527f4552433732313a206d696e7420746f20746865207a65726f206164647265737360448201526064016103cc565b6000818152600260205260409020546001600160a01b0316156114855760405162461bcd60e51b815260206004820152601c60248201527f4552433732313a20746f6b656e20616c7265616479206d696e7465640000000060448201526064016103cc565b6000818152600260205260409020546001600160a01b0316156114ea5760405162461bcd60e51b815260206004820152601c60248201527f4552433732313a20746f6b656e20616c7265616479206d696e7465640000000060448201526064016103cc565b6001600160a01b038216600081815260036020908152604080832080546001019055848352600290915280822080546001600160a01b0319168417905551839291907fddf252ad1be2c89b69c2b068fc378daa952ba7f163c4a11628f55a4df523b3ef908290a45050565b60008072184f03e93ff9f4daa797ed6e38ed64bf6a1f0160401b83106115945772184f03e93ff9f4daa797ed6e38ed64bf6a1f0160401b830492506040015b6d04ee2d6d415b85acef810000000083106115c0576d04ee2d6d415b85acef8100000000830492506020015b662386f26fc1000083106115de57662386f26fc10000830492506010015b6305f5e10083106115f6576305f5e100830492506008015b612710831061160a57612710830492506004015b6064831061161c576064830492506002015b600a83106102995760010192915050565b6001600160e01b031981168114610ba657600080fd5b60006020828403121561165557600080fd5b81356110ac8161162d565b60005b8381101561167b578181015183820152602001611663565b50506000910152565b6000815180845261169c816020860160208601611660565b601f01601f19169290920160200192915050565b6020815260006110ac6020830184611684565b6000602082840312156116d557600080fd5b5035919050565b80356001600160a01b03811681146116f357600080fd5b919050565b6000806040838503121561170b57600080fd5b611714836116dc565b946020939093013593505050565b60006020808301818452808551808352604092508286019150828160051b87010184880160005b838110156117d057603f1989840301855281516080815181865261176f82870182611684565b915050888201518582038a8701526117878282611684565b915050878201518582038987015261179f8282611684565b915050606080830151925085820381870152506117bc8183611684565b968901969450505090860190600101611749565b509098975050505050505050565b6000806000606084860312156117f357600080fd5b6117fc846116dc565b925061180a602085016116dc565b9150604084013590509250925092565b60006020828403121561182c57600080fd5b6110ac826116dc565b634e487b7160e01b600052604160045260246000fd5b600067ffffffffffffffff8084111561186657611866611835565b604051601f8501601f19908116603f0116810190828211818310171561188e5761188e611835565b816040528093508581528686860111156118a757600080fd5b858560208301376000602087830101525050509392505050565b600082601f8301126118d257600080fd5b6110ac8383356020850161184b565b600080600080608085870312156118f757600080fd5b843567ffffffffffffffff8082111561190f57600080fd5b61191b888389016118c1565b9550602087013591508082111561193157600080fd5b61193d888389016118c1565b9450604087013591508082111561195357600080fd5b61195f888389016118c1565b9350606087013591508082111561197557600080fd5b50611982878288016118c1565b91505092959194509250565b600080604083850312156119a157600080fd5b6119aa836116dc565b9150602083013580151581146119bf57600080fd5b809150509250929050565b600080600080608085870312156119e057600080fd5b6119e9856116dc565b93506119f7602086016116dc565b925060408501359150606085013567ffffffffffffffff811115611a1a57600080fd5b8501601f81018713611a2b57600080fd5b6119828782356020840161184b565b60008060408385031215611a4d57600080fd5b611a56836116dc565b9150611a64602084016116dc565b90509250929050565b600181811c90821680611a8157607f821691505b6020821081036107ad57634e487b7160e01b600052602260045260246000fd5b634e487b7160e01b600052601160045260246000fd5b8082018082111561029957610299611aa1565b8181038181111561029957610299611aa1565b634e487b7160e01b600052603260045260246000fd5b600060018201611b0557611b05611aa1565b5060010190565b6020808252602d908201527f4552433732313a2063616c6c6572206973206e6f7420746f6b656e206f776e6560408201526c1c881bdc88185c1c1c9bdd9959609a1b606082015260800190565b601f82111561046d57600081815260208120601f850160051c81016020861015611b805750805b601f850160051c820191505b81811015611b9f57828155600101611b8c565b505050505050565b815167ffffffffffffffff811115611bc157611bc1611835565b611bd581611bcf8454611a6d565b84611b59565b602080601f831160018114611c0a5760008415611bf25750858301515b600019600386901b1c1916600185901b178555611b9f565b600085815260208120601f198616915b82811015611c3957888601518255948401946001909101908401611c1a565b5085821015611c575787850151600019600388901b60f8161c191681555b5050505050600190811b01905550565b60008151611c79818560208601611660565b9290920192915050565b60008351611c95818460208801611660565b835190830190611ca9818360208801611660565b01949350505050565b60208082526025908201527f4552433732313a207472616e736665722066726f6d20696e636f72726563742060408201526437bbb732b960d91b606082015260800190565b607b60f81b815268113730b6b2911d101160b91b60018201528451600090611d2681600a850160208a01611660565b61088b60f21b600a918401918201819052691134b6b0b3b2911d101160b11b600c8301528651611d5d816016850160208b01611660565b601692019182018190526f113232b9b1b934b83a34b7b7111d101160811b60188301528551611d93816028850160208a01611660565b6028920191820152611de8611ddb611dce611dc8602a8501701139bcb6b6b2ba3934b1a5b2bc911d101160791b815260110190565b87611c67565b601160f91b815260010190565b607d60f81b815260010190565b979650505050505050565b7f646174613a6170706c69636174696f6e2f6a736f6e3b6261736536342c000000815260008251611e2b81601d850160208701611660565b91909101601d0192915050565b60208082526032908201527f4552433732313a207472616e7366657220746f206e6f6e20455243373231526560408201527131b2b4bb32b91034b6b83632b6b2b73a32b960711b606082015260800190565b600082611ea757634e487b7160e01b600052601260045260246000fd5b500490565b808202811582820484141761029957610299611aa1565b6001600160a01b0385811682528416602082015260408101839052608060608201819052600090611ef690830184611684565b9695505050505050565b600060208284031215611f1257600080fd5b81516110ac8161162d56fe4142434445464748494a4b4c4d4e4f505152535455565758595a6162636465666768696a6b6c6d6e6f707172737475767778797a303132333435363738392b2fa2646970667358221220cdfa31a8311ad282abdf9ab627af2e98f66f1c696d28050b63cb6045ce376ddf64736f6c63430008110033",
    "linkReferences": {}
  },
  "methodIdentifiers": {
    "approve(address,uint256)": "095ea7b3",
    "balanceOf(address)": "70a08231",
    "fetchNfts()": "20de9a63",
    "getApproved(uint256)": "081812fc",
    "isApprovedForAll(address,address)": "e985e9c5",
    "mintNft(string,string,string,string)": "82cd934e",
    "name()": "06fdde03",
    "ownerOf(uint256)": "6352211e",
    "safeTransferFrom(address,address,uint256)": "42842e0e",
    "safeTransferFrom(address,address,uint256,bytes)": "b88d4fde",
    "setApprovalForAll(address,bool)": "a22cb465",
    "supportsInterface(bytes4)": "01ffc9a7",
    "symbol()": "95d89b41",
    "tokenURI(uint256)": "c87b56dd",
    "transferFrom(address,address,uint256)": "23b872dd"
  },
  "id": 14
}